:020000001628C0
:0E0006008312031321088A00200882000800DC
:1000140003208A110A128000840AA00A0319A10A83
:08002400F003031D0A28080087
:10002C00831603138701831287011F308316860002
:10003C0083128601061823282028061928288618DA
:10004C0028285428071486192C28292807103330FF
:10005C00FB00BB30FC00DF30FD00FD0B3328FC0B3C
:10006C003328FB0B3328000000008714061A4328A2
:10007C000619432886184328532887100B30FB0099
:10008C002630FC005D30FD00FD0B4A28FC0B4A2895
:10009C00FB0B4A280000000023283C282328552865
:02400E004A2F37
:00000001FF
